{
  "contractName": "Transaction",
  "abi": [
    {
      "anonymous": false,
      "inputs": [
        {
          "indexed": false,
          "internalType": "string",
          "name": "NumeroDeProduit",
          "type": "string"
        },
        {
          "indexed": false,
          "internalType": "string",
          "name": "Poids",
          "type": "string"
        },
        {
          "indexed": false,
          "internalType": "string",
          "name": "BonDeLivraison",
          "type": "string"
        }
      ],
      "name": "TransactionRecord",
      "type": "event"
    },
    {
      "inputs": [
        {
          "internalType": "string",
          "name": "NumeroDeProduit",
          "type": "string"
        },
        {
          "internalType": "string",
          "name": "Poids",
          "type": "string"
        },
        {
          "internalType": "string",
          "name": "BonDeLivraison",
          "type": "string"
        }
      ],
      "name": "myFonctionContrat",
      "outputs": [],
      "stateMutability": "nonpayable",
      "type": "function"
    }
  ],
  "bytecode": "0x608060405234801561000f575f80fd5b506103748061001d5f395ff3fe608060405234801561000f575f80fd5b5060043610610029575f3560e01c80630fc834be1461002d575b5f80fd5b610047600480360381019061004291906101d6565b610049565b005b7f4497c237fd48004cefe2bc00e348a1578a6979c873e183ebc9fb357f3e6c3bed83838360405161007c939291906102f4565b60405180910390a1505050565b5f604051905090565b5f80fd5b5f80fd5b5f80fd5b5f80fd5b5f601f19601f8301169050919050565b7f4e487b71000000000000000000000000000000000000000000000000000000005f52604160045260245ffd5b6100e8826100a2565b810181811067ffffffffffffffff82111715610107576101066100b2565b5b80604052505050565b5f610119610089565b905061012582826100df565b919050565b5f67ffffffffffffffff821115610144576101436100b2565b5b61014d826100a2565b9050602081019050919050565b828183375f83830152505050565b5f61017a6101758461012a565b610110565b9050828152602081018484840111156101965761019561009e565b5b6101a184828561015a565b509392505050565b5f82601f8301126101bd576101bc61009a565b5b81356101cd848260208601610168565b91505092915050565b5f805f606084860312156101ed576101ec610092565b5b5f84013567ffffffffffffffff81111561020a57610209610096565b5b610216868287016101a9565b935050602084013567ffffffffffffffff81111561023757610236610096565b5b610243868287016101a9565b925050604084013567ffffffffffffffff81111561026457610263610096565b5b610270868287016101a9565b9150509250925092565b5f81519050919050565b5f82825260208201905092915050565b5f5b838110156102b1578082015181840152602081019050610296565b5f8484015250505050565b5f6102c68261027a565b6102d08185610284565b93506102e0818560208601610294565b6102e9816100a2565b840191505092915050565b5f6060820190508181035f83015261030c81866102bc565b9050818103602083015261032081856102bc565b9050818103604083015261033481846102bc565b905094935050505056fea26469706673582212206ab76b3a3f0b9ec567cb556a738a90bdbd63464e78b3340d9a8401c8ba48afb064736f6c63430008150033",
  "immutableReferences": {},
  "source": "// Transaction.sol\r\n// SPDX-License-Identifier: MIT\r\npragma solidity ^0.8.0;\r\n\r\ncontract Transaction {\r\n    event TransactionRecord(\r\n        string NumeroDeProduit,\r\n        string Poids,\r\n        string BonDeLivraison\r\n    );\r\n\r\n    function myFonctionContrat(\r\n        string memory NumeroDeProduit,\r\n        string memory Poids,\r\n        string memory BonDeLivraison\r\n    ) external {\r\n        // Vous pouvez ajouter ici la logique spcifique  votre fonction\r\n        // (par exemple, stocker les dtails de la transaction dans une structure de donnes)\r\n\r\n        // mettre un vnement pour enregistrer la transaction\r\n        emit TransactionRecord(\r\n            NumeroDeProduit,\r\n            Poids,\r\n            BonDeLivraison\r\n        );\r\n    }\r\n}\r\n",
  "sourcePath": "C:\\Users\\larai\\Documents\\M1-IWOCS\\tpe\\tracker-front\\truffle\\contracts\\Transaction.sol",
  "compiler": {
    "name": "solc",
    "version": "0.8.21+commit.d9974bed.Emscripten.clang"
  },
  "schemaVersion": "3.4.16",
  "updatedAt": "2024-01-22T21:49:16.625Z",
  "devdoc": {
    "kind": "dev",
    "methods": {},
    "version": 1
  },
  "userdoc": {
    "kind": "user",
    "methods": {},
    "version": 1
  }
}